S01500004C6573736F6E20312D636F64652E7372656382
S11300000C942A000C943F000C943F000C943F0085
S11300100C943F000C943F000C943F000C943F0060
S11300200C943F000C943F000C943F000C943F0050
S11300300C943F000C943F000C943F000C943F0040
S11300400C943F000C943F000C943F000C943F0030
S11300500C943F0011241FBECFE5D8E0DEBFCDBF16
S113006010E0A0E6B0E0E6E5F1E002C005900D92F4
S1130070A837B107D9F70E9499000C94A9000C94F1
S1130080000082BBA898A99882E08A95F1F700C085
S1130090AA9A92E09A95F1F700C0AA988FE99FE096
S11300A00197F1F700C0000008958FEF84BB81BB76
S11300B02FE788E391E0215080409040E1F700C0B1
S11300C0000082E090E00E94410088E390E00E94FA
S11300D041008FE090E00E94410086E090E00E94A1
S11300E0410081E090E00E944100089582BBA89AFB
S11300F0A99882E08A95F1F700C0AA9A92E09A95AD
S1130100F1F700C0AA988FE99FE00197F1F700C0CA
S113011000000895CF93DF93EC018881882331F0A8
S113012021960E94760089918111FBCFDF91CF91B6
S113013008950E94550080E690E00E948A0080ECB9
S11301400E9441008EE690E00E948A0080E090E0E8
S10901500895F894FFCFAE
S11301564D53502049493A2048656C6C6F00456CF4
S10B0166697A616265746800A6
S9030000FC
